:100000000000022079080000A1080000A3080000F9
:10001000A5080000A7080000A908000000000000D3
:10002000000000000000000000000000AB0800001D
:10003000AD08000000000000AF080000B10800009B
:10004000B3080000B3080000B3080000B3080000C4
:10005000B3080000B3080000B3080000B3080000B4
:10006000B3080000B3080000B3080000B3080000A4
:10007000B3080000B3080000B3080000B308000094
:10008000B3080000B3080000B3080000B308000084
:10009000B3080000B3080000B3080000B308000074
:1000A000B3080000B3080000B3080000B308000064
:1000B000B3080000B30800000000000000000000CA
:1000C000B3080000B3080000B3080000B308000044
:1000D000B3080000B3080000B3080000B308000034
:1000E000B308000000000000000000000000000055
:1000F00000000000B308000000000000B30800008A
:1001000000000000000000000000000000000000EF
:1001100000000000000000000000000000000000DF
:1001200000000000000000000000000000000000CF
:1001300000000000000000000000000000000000BF
:1001400000000000000000000000000000000000AF
:10015000000000000000000000000000000000009F
:10016000000000000000000000000000000000008F
:10017000000000000000000000000000000000007F
:10018000000000000000000000000000000000006F
:10019000000000000000000000000000000000005F
:1001A000000000000000000000000000000000004F
:1001B000000000000000000000000000000000003F
:1001C000000000000000000000000000000000002F
:1001D000000000000000000000000000000000001F
:1001E000000000000000000000000000000000000F
:1001F00000000000000000000000000000000000FF
:100200000348044B834202D0034B03B118477047A5
:10021000C0090020C0090020000000000548064B6E
:100220001B1AD90F01EBA301491002D0034B03B1F4
:1002300018477047C0090020C009002000000000D6
:1002400010B5064C237843B9FFF7DAFF044B13B11E
:100250000448AFF300800123237010BDC0090020C3
:1002600000000000403F000008B5044B1BB10449EA
:100270000448AFF30080BDE80840CFE7000000006D
:10028000C4090020403F0000A3F5803A704700BF3A
:10029000154B002B08BF114B9D46FFF7F5FF0021C2
:1002A0008B460F461148124A121A00F077FB0C4B8E
:1002B000002B00D098470B4B002B00D09847002014
:1002C000002104000D000B4800F0F4FA00F01EFBC2
:1002D0002000290000F030F800F0F2FA00000800D9
:1002E000000000000000000000000220C009002003
:1002F000180A0020E108000080B586B000AFF86061
:10030000B9607A60BB687B6100233B610AE07B696E
:100310001B78184600F08EF87B6901337B613B69DE
:1003200001333B613B697A689A42F0D87B68184692
:100330001837BD4680BD000080B584B002AF00F024
:10034000B1F800F047F800237B604323009340F2AC
:10035000E27340F2E37241F28B011D4800F0FAFAB9
:100360004FF0A043D3F8103503F48043002B04D1A1
:10037000412000F05FF800F0D9F84FF0A043D3F827
:10038000103503F40003002B04D1422000F052F892
:1003900000F0F0F800F06EF80346002B0CD04FF0A0
:1003A000A043D3F8043503F40013002B02D000F06F
:1003B000E1F801E000F0BAF842F210737B6000BF90
:1003C0007B68013B7B607B68002BF9D1C8E700BFED
:1003D000A43D000080B400AF4FF0A0430022C3F85A
:1003E0001827114B0122C3F82027104B2822C3F8ED
:1003F00014250E4B0622C3F80C250C4B0C4AC3F8EF
:1004000024250A4B0122C3F81025084B0122C3F80A
:100410000825064B0422C3F80025044B01221A606C
:1004200000BFBD4680BC7047000300500020004064
:100430000050270080B483B000AF0346FB710C4B23
:1004400001229A600A4AFB79C2F81C3500BF084BAA
:10045000D3F81C31002BFAD0054B0022C3F81C2125
:10046000034B0122DA6000BF0C37BD4680BC7047E9
:100470000020004080B400AF094BD3F80831002BB6
:1004800008D0074B0022C3F80821054BD3F81835D4
:10049000DBB200E000231846BD4680BC704700BFB9
:1004A0000020004080B400AF4FF0A0430022C3F80A
:1004B00038274FF0A0430022C3F85C274FF0A04339
:1004C0000122C3F854274FF0A0430122C3F8582754
:1004D0004FF0A0430122C3F83C274FF0A043012274
:1004E000C3F860274FF0A0430122C3F84C274FF018
:1004F000A0430122C3F870274FF0A0430122C3F8A4
:100500002C274FF0A0430122C3F87C27064B012281
:10051000C3F814274FF0A0430122C3F8782700BF87
:10052000BD4680BC704700BF0003005080B400AFE0
:100530004FF0A0434FF40012C3F808254FF0A0433A
:100540004FF48002C3F808254FF0A0434FF4004257
:10055000C3F808254FF0A0434FF08072C3F8082578
:100560004FF0A0434FF40022C3F8082500BFBD465A
:1005700080BC704780B400AF4FF0A0434FF400122E
:10058000C3F80C254FF0A0434FF48002C3F80C25AC
:100590004FF0A0434FF40042C3F80C254FF0A043A6
:1005A0004FF08072C3F80C254FF0A0434FF40022A7
:1005B000C3F80C2500BFBD4680BC704780B483B033
:1005C00000AF0E4B1B687B600D4B1B683B607B686C
:1005D0000D2B0CD13B68002B03D03B68012B02D0C4
:1005E00003E0012304E0012302E0012300E00023F3
:1005F00018460C37BD4680BC704700BF3001001064
:100600003401001080B483B000AF0E4B1B687B60D8
:100610000D4B1B683B607B680D2B0CD13B68002B9E
:1006200003D03B68012B02D003E0012304E0012347
:1006300002E0012300E0002318460C37BD4680BCD1
:10064000704700BF300100103401001080B483B047
:1006500000AF0E4B1B687B600D4B1B683B607B68DB
:100660000D2B0CD13B68002B03D03B68012B02D033
:1006700003E0012304E0012302E0012300E0002362
:1006800018460C37BD4680BC704700BF30010010D3
:100690003401001080B483B000AF0E4B1B687B6048
:1006A0000D4B1B683B607B680D2B0CD13B68002B0E
:1006B00003D03B68012B02D003E0002304E00123B8
:1006C00002E0012300E0002318460C37BD4680BC41
:1006D000704700BF300100103401001080B500AF3A
:1006E000FFF7D8FF0346002B07D04FF010234FF041
:1006F0008042D3F80832C2F8583500BF80BD0000F0
:1007000080B400AF034B044A1A6000BFBD4680BCF2
:10071000704700BF000000200090D00380B500AFFC
:10072000FFF74CFF0346002B0ED04FF08043002212
:10073000C3F80C214FF080430022C3F810214FF082
:1007400080430022C3F83825FFF75CFF0346002BE7
:1007500076D04FF08053474AD3F80434C2F820359E
:100760004FF08053434AD3F80834C2F824354FF091
:100770008053404AD3F80C34C2F828354FF08053E8
:100780003C4AD3F81034C2F82C354FF08053394A24
:10079000D3F81434C2F830354FF08053354AD3F8CB
:1007A0001834C2F834354FF08053324AD3F81C3431
:1007B000C2F840354FF080532E4AD3F82034C2F8A7
:1007C00044354FF080532B4AD3F82434C2F84835CF
:1007D0004FF08053274AD3F82834C2F84C354FF0F5
:1007E0008053244AD3F82C34C2F850354FF080534C
:1007F000204AD3F83034C2F854354FF080531D4AA4
:10080000D3F83434C2F860354FF08053194AD3F826
:100810003834C2F864354FF08053164AD3F83C346C
:10082000C2F868354FF08053124AD3F84034C2F80A
:100830006C354FF080530F4AD3F84434C2F870350A
:10084000FFF704FF0346002B0DD04FF08043D3F891
:10085000003403F00103002B05D04FF080436FF00C
:100860000102C3F80024FFF739FFFFF749FF00BF7B
:1008700080BD00BF00C000400649074A074B9B1AD5
:1008800003DD043BC858D050FBDCFFF747FFFFF700
:10089000FFFC00004C3F000000000020C0090020C9
:1008A000FEE7FEE7FEE7FEE7FEE7FEE7FEE7FEE720
:1008B000FEE7FEE7002301461A46184600F0CABFCD
:1008C00008B50021044600F0F9FF044B1868C36B1B
:1008D00003B19847204603F057FA00BFD83D000007
:1008E00038B5084B084D5B1B9C1007D0043B1D44DA
:1008F000013C55F804399847002CF9D1BDE838403F
:1009000003F04ABAC0090020BC09002070B50D4EA2
:100910000D4D761BB61006D0002455F8043B01346B
:100920009847A642F9D1094E094D761B03F02EFADD
:10093000B61006D0002455F8043B01349847A6426F
:10094000F9D170BDB4090020B4090020BC09002011
:10095000B40900200FB400B5074983B004AB0868A0
:1009600053F8042B8168019300F0B0F803B05DF8F0
:1009700004EB04B0704700BF080000200EB400B5BF
:1009800082B003AB816853F8042B019300F09EF80A
:1009900002B05DF804EB03B0704700BF830730B5C9
:1009A00048D0541E002A3FD0CAB2034601E0013CA1
:1009B0003AD303F8012B9D07F9D1032C2DD9CDB2E1
:1009C00045EA05250F2C45EA054536D9A4F1100264
:1009D00022F00F0C03F1200EE6444FEA121C03F143
:1009E000100242E9045542E9025510327245F8D12D
:1009F0000CF1010214F00C0F03EB021204F00F0CC7
:100A000013D0ACF1040323F003030433134442F87E
:100A1000045B9342FBD10CF003042CB1CAB21C441A
:100A200003F8012B9C42FBD130BD64461346002CD9
:100A3000F4D1F9E703461446BFE71A46A446E0E7B7
:100A40002DE9F84F4B6E9C0490462DD593681268A3
:100A500043B38B46064602F1080959E9025A5FEA98
:100A60009A0715D0043D002401E0A7420ED055F8A6
:100A7000041F5A46304601F0B1F9431C04F1010449
:100A8000F3D10023C8E90133BDE8F88FD8F8083066
:100A90002AF0030AA3EB0A03C8F8083009F1080991
:100AA000002BDAD10020ECE701F020FB0023C8E99D
:100AB0000133BDE8F88F00BF10B494680CB110BCCE
:100AC000BEE72046546010BC704700BF2DE9F04FD0
:100AD000ABB01C46884617460693834618B1836B15
:100AE000002B00F02582B8F90C1088048AB20AD4D1
:100AF000D8F8643041F4005223F40053A8F80C20D5
:100B0000C8F8643092B2130740F1A480D8F81030CE
:100B1000002B00F09F8002F01A020A2A00F0A88041
:100B20001AAB0D930023CDE90E3309930DF168093B
:100B300005933B78002B00F00D813C4604E014F84F
:100B4000013F002B00F0E880252BF8D1E51B40F099
:100B5000E5802378002B00F0FD804FF0000200219B
:100B60008DF82F20637804914FF0FF32671C084600
:100B700002928A460137A3F12002582A00F2F78038
:100B8000DFE812F03302F500F5002F02F500F50062
:100B9000F500F500F500F500E5012B02F500F00188
:100BA000F401F50027025900590059005900590075
:100BB0005900590059005900F500F500F500F500FD
:100BC000F500F500F500F500F500F5000E02F50062
:100BD000F500F500F500F500F500F500F500F5006D
:100BE000F5009400F500F500F500F500F50084002F
:100BF000F500F5004802F500F500F500F500F500F8
:100C0000F500F500F500F500F5003A02A701F50042
:100C1000F500F5008902A701F500F5007F02F50057
:100C200069029600C902C502F500A402F50086001B
:100C3000F500F5008D02A3F13002002417F8013B06
:100C400004EB840402EB4404A3F13002092AF5D931
:100C5000049490E74146584600F092FD002840F089
:100C60003985B8F80C2002F01A020A2A7FF458AF2E
:100C7000B8F90E30002BFFF653AF23463A464146F3
:100C800058462BB0BDE8F04F00F044BD4AF0100AC2
:100C90001AF0200100F00F81069B073323F00703B1
:100CA000596853F8080B069301230EE04AF0100A26
:100CB0001AF0200100F0F280069B073323F00703AF
:100CC000596853F8080B069300234FF000028DF883
:100CD0002F2000220792029A541C00F02F822AF043
:100CE0008004019450EA010440F02682002A40F07A
:100CF0009584002B40F00E841AF00103039340F01A
:100D00003E841AACDDE902639E42B8BF1E46079BD3
:100D1000002B3ED001363CE0E51B1BD00E9B0F9A0A
:100D200001332A44072BC9E900750F920E9305DCA5
:100D300009F10809059B2B4405930AE7002A00F0F6
:100D4000D1830DAA41465846FFF77AFE30B90DF11E
:100D50006809EFE70F9B002B40F08584B8F80C3052
:100D60005B0600F1B78405982BB0BDE8F08F002931
:100D700040F07584002BEDD08DF8403001264FF007
:100D800000038DF82F30039610AC0023CDF804A09B
:100D90000293019B13F002030793019B18BF0236D5
:100DA00013F08403089304D1049B9D1B002D00F3D2
:100DB000DB82DDE90E1001F1010C9DF82F3093B1BB
:100DC00001300DF12F030121BCF1070FCDE90EC059
:100DD000C9F80030C9F8041000F3A682614609F191
:100DE00008090CF1010C079BEBB10CAB0230C9F800
:100DF0000030BCF1070F4FF00203CDE90EC0C9F877
:100E0000043040F3AB82002800F066830DAA41460F
:100E10005846FFF715FE0028A0D1DDE90E100DF1B0
:100E2000680901F1010C089B802B00F0C881DDE905
:100E300002329D1A002D00F31C82039BC9F800406A
:100E40001844BCF1070FCDE90EC0C9F8043040F3D7
:100E5000B381002800F0D2820DAA41465846FFF720
:100E6000EFFD00287FF47AAF0F980DF16809019B20
:100E70005A0704D5049B9C1B002C00F3C982DDE9B2
:100E80000423B242ACBF9B189B190593002840F085
:100E9000368200230E930DF168094AE61AF010031A
:100EA00049D11AF0400146D0069A52F8040B069236
:100EB000194680B209E71AF0100342D11AF0400136
:100EC0003FD0069A52F8040B0692194680B20123CD
:100ED000FBE6002940F0E5831AF0200F069B68D05E
:100EE000073323F007031A465B6852F8080B069293
:100EF0001946002BC0F20483029B013300F08A8361
:100F00009DF82F30079350EA01032AF0800A00F081
:100F100054830A2871F1000380F0128330300123DA
:100F20008DF86700CDF804A003930DF16704E9E69E
:100F300000F0E0FED7E5069B53F8040B06930B4642
:100F4000C3E6069B53F8040B06930123BDE6069BFC
:100F500053F8042B0492002A80F20D83049A06931E
:100F6000524204923B784AF0040A03E63C4614F8E5
:100F7000013B2A2B00F0B383A3F13002092A274654
:100F800098BF002400F2938317F8013B04EB84041C
:100F900002EB4404A3F13002092AF5D90294EAE5F0
:100FA000002940F088834AF0100A1AF0200F069BAF
:100FB00096D153F8040B06931AF0100F40F09B8261
:100FC0001AF0400F00F0978240F3C0310B4600B298
:100FD0008FE73B784AF0800ACCE53B7801212B2053
:100FE000C8E53B784AF0010AC4E53B7800287FF465
:100FF000C1AD01212020BDE5069B4FF000028DF818
:101000002F20012653F8042B8DF8402006930396D9
:1010100010ACBAE6002940F05183BD4A09921AF09B
:10102000200144D0069A073222F00702516852F894
:10103000080B06921AF0010F0BD050EA010208D0FB
:101040008DF8313030238DF830304AF0020A022317
:101050003BE6022339E6002940F026831AF0200FF0
:1010600040F09A821AF0100F40F0CC821AF0400F34
:1010700000F0C882069B059953F8042B0693118053
:1010800057E53B786C2B03BF7B784AF0200A013789
:101090004AF0100A6EE53B784AF0400A6AE50029FA
:1010A00040F0FC829B4A09921AF02001BAD11AF052
:1010B000100240F01B821AF0400100F01782069CDB
:1010C00054F8040B0694114680B2B3E7069D55F818
:1010D000044B4FF000038DF82F30002C00F0A48259
:1010E000029B5E1C00F072821A460021204601F02D
:1010F00067FD002800F0C282031B03939DF82F3088
:10110000079300230695CDF804A00293FAE53B78F7
:101110004AF0200A2EE5069B53F8040B0693302371
:101120008DF8303078238DF831307A4B09934AF0BE
:10113000020A00210223C8E5DDF804A0012B3FF4D8
:10114000E8AE022B1AAC12D1099A00F00F03000985
:10115000D35C04F8013D40EA0170090950EA01033B
:10116000F3D11AAB1B1BCDF804A00393CAE500F022
:101170000703C00840EA4170C908303350EA01054E
:10118000224604F8013DF2D11AF0010FE9D0302BCC
:10119000E7D03023023A04F8013C1AAB9B1ACDF891
:1011A00004A003931446ADE503981A9401231B9001
:1011B0000F900E930DF1680909F1080957E6049B99
:1011C0009D1B002D7FF733AE102D40F37F82DFF89B
:1011D00048A152461023A246144607E001F1020E30
:1011E00009F108091146103D102D1DDD4A1C103073
:1011F000072AC9E90043CDE90E20EFDD0DAA00283A
:1012000000F08C80414658460DF16809FFF718FC44
:1012100000287FF4A3ADDDE90E10103D102D01F183
:10122000010E4FF01003E1DC234654469A46284451
:10123000BEF1070FCDE90EE0C9F800A0C9F80450CF
:1012400040F3A481002800F0F8810DAA41465846D9
:10125000FFF7F6FB00287FF481ADDDE90232DDE91E
:101260000E109D1A002D01F1010C0DF168097FF798
:10127000E4AD102DDFF8A0A02BDD52461023A246CE
:10128000144607E001F1020C09F108091146103D6E
:10129000102D1BDD4A1C1030072AC9E90043CDE997
:1012A0000E20EFDD0DAA414618B358460DF168092E
:1012B000FFF7C6FB00287FF451ADDDE90E10103DAD
:1012C000102D01F1010C4FF01003E3DC23465446CE
:1012D0009A462844BCF1070FCDE90EC0C9F800A01A
:1012E000C9F8045000F3E38009F108090CF1010C7E
:1012F000A3E54FF0010C01460DF16809C7E70DAAFF
:1013000041465846FFF79CFB00283FF4C2AD25E557
:10131000DC3D0000F03D00001C3E00004FF0010EDF
:1013200001460DF168095EE7002800F0D2800DAAA1
:1013300041465846FFF784FB00287FF40FADDDE9F6
:101340000E100DF1680901F1010C4CE502200CAB07
:101350001B901A934FF0010C0DF16809614609F1D9
:10136000080901F1010C5EE5102D40F39181DFF8D1
:1013700004A3DDE90EC052461023A246614614467E
:1013800007E001F1020C09F108091146103D102D8A
:101390001BDD4A1C1030072AC9E90043CDE90E20A5
:1013A000EFDD0DAA20B3414658460DF16809FFF75D
:1013B00047FB00287FF4D2ACDDE90E10103D102D64
:1013C00001F1010C4FF01003E3DC23466146544663
:1013D0009A4628440729CDE90E10C9F800A0C9F89B
:1013E000045000F39C8009F1080901F1010CE4E4C8
:1013F00001464FF0010C0DF16809C7E7019B0E9003
:1014000059074CD5049B9C1B002C48DD0DF1680945
:10141000102C40F35681DFF85CA20E9A534610253B
:10142000B2461E4606E0911C09F108091A46103C16
:10143000102C19DD531C1030072BC9E90065CDE9CC
:101440000E30F0DD0DAA28B341465846FFF7F8FAF2
:1014500000287FF483ACDDE90E20103C102C02F153
:1014600001010DF16809E5DC334656469A462044F1
:101470000729C9E900A4CDE90E107FF700AD70B1CE
:101480000DAA41465846FFF7DBFA00287FF466AC08
:101490000F98F4E4012102460DF16809C7E7DDE980
:1014A0000423B242ACBF9B189B190593F1E40028BA
:1014B0003FF47AAE0DAA41465846FFF7C1FA00281C
:1014C0007FF44CAC0E9B0F9803F1010C0DF16809F1
:1014D000B3E4079B002B69D14FF0010C01460DF1DD
:1014E0006809A0E40E920DF1680923E4069A52F807
:1014F000040B06929EE5C1170B46002BBFF6FCAC11
:101500002D2340428DF82F30079361EB41010123D9
:10151000FFF7E1BB029B03931AACFFF7F3BB002874
:1015200062D00DAA41465846FFF78AFA00287FF498
:1015300015ACDDE90E100DF1680901F1010C3CE478
:101540001AAC0A22002306460D4602F06FFA30322A
:1015500004F8012D0023304629460A2202F066FADB
:101560000A2E75F10003ECD21AAB1B1BCDF804A0B8
:101570000393FFF7C7BB06933B78FFF7FBBA302313
:101580008DF867300DF16704FFF7BCBB09F108095E
:101590000EF1010C71464AE4DDE9050353F8041B22
:1015A0000693C217C1E90002FFF7C3BA02200CABD1
:1015B0001B901A930DF16809D1E6029B002B7FF472
:1015C000ADACCDF804A00393FFF79BBB2046069576
:1015D000CDF804A002F014F89DF82F3007930023F3
:1015E00003900293FFF78EBB9DF82F3063B3012366
:1015F0009C461B930DF12F031A930DF16809604669
:10160000FFF7ECBB069B059953F8042B116006937A
:10161000FFF78FBA9DF82F3007937AE4012BDDF89E
:1016200004A07FF48EAD79E4029E134C0695062E3D
:1016300028BF06260396FFF7A8BB4FF0010C014612
:101640000DF16809FFF7F3BB079B002B7FF47EAE1B
:1016500001464FF0010C0DF16809FFF7E8BB8DF86A
:101660002F00FFF787BB0DAA41465846FFF7E8F960
:10167000FFF774BB0C3E0000043E0000029B039386
:101680009DF82F300695CDE901A00793FFF73ABBEF
:101690000E990F98DFF85CA001319AE68DF82F00C3
:1016A00000E58DF82F0017E48DF82F00D6E4002216
:1016B0000292FFF760BA8DF82F0074E48DF82F00C6
:1016C000ABE40E99DFF82CA00131D0E6DFF828A0BA
:1016D000E646ACE54FF0FF330593FFF744BB069AAF
:1016E0007B78274652F8044B069244EAE47402944D
:1016F000FFF740BA0C3E00001C3E000010B4044C42
:1017000084461346206810BC0A466146FFF7DEB9DE
:101710000800002070B50C468989ADF58D6D21F06B
:101720000201ADF80C10616E1991E189ADF80E104F
:10173000E1690791616A09911AA9009104914FF436
:101740008061029105910021069169460646FFF7E6
:10175000BDF9051E07DB6946304600F0A1F90028F7
:1017600018BF4FF0FF35BDF80C305B0603D5A389D9
:1017700043F04003A38128460DF58D6D70BD00BF79
:1017800038B5334B1B6805460C460BB19A6B12B348
:10179000B4F90C3018079AB225D5216900292DD04B
:1017A00012F0010007D00020A06060694042A061F3
:1017B00039B1002038BD950758BF6069A060002985
:1017C000F7D1120658BF0846F4D543F04003A38171
:1017D0004FF0FF3038BD184600F08CFAB4F90C30E9
:1017E00018079AB2D9D4D1062AD5520714D4216940
:1017F00043F00803A3819AB20029D1D102F42070EA
:10180000B0F5007FCCD02146284600F06DFEB4F93B
:101810000C3021699AB2C3E7216B51B104F1400247
:10182000914204D0284600F05BFBB4F90C30002252
:10183000226321690022C4E9001223F02403D7E7C0
:10184000092243F040032A604FF0FF30A38138BDE6
:101850000800002070B4184C2568D5F848411CB326
:1018600065681F2D25DC38B9AB1C0135656044F86F
:101870002310002070BC704704EB850C0228CCF8C4
:101880008820D4F888614FF0010202FA05F246EA96
:101890000206C4F88861CCF80831E5D1D4F88C315F
:1018A0001343C4F88C31DFE705F5A674C5F8484149
:1018B000D6E74FF0FF30DDE7D83D00002DE9F04FCF
:1018C000294B1F6883B0D7F848610190B6B18B46A9
:1018D0004FF001084FF000097468651E0ED4013402
:1018E00006EB8404BBF1000F0BD0D4F800315B454C
:1018F00007D0013D6B1CA4F10404F3D103B0BDE893
:10190000F08F73682268013BAB420CBF7560C4F86E
:101910000090002AEDD0D6F88801D6F804A008FA85
:1019200005F101420BD190477268524512D1D7F8A8
:101930004831B342DDD01E46002ECDD1DEE7D6F8C9
:101940008C0101420BD1D4F8801001989047726845
:101950005245ECD0D7F84861002EBDD1CEE7D4F87F
:1019600080009047E0E700BFD83D0000024B13B174
:101970000248FEF79FBF704700000000E10800002A
:10198000B1F90C20F8B50C461107074642D463683C
:1019900042F40062002BA28159DDA56A002D54D0CB
:1019A00000233E683B6093B212F4805253D1E16948
:1019B00001233846A847421C63D0A389A56A5B0768
:1019C00005D56368C01A236B0BB1E36BC01AE169DC
:1019D000024600233846A847411C3ED13B68002BF5
:1019E0003BD01D2B01D0162B52D1A3892269226036
:1019F00023F4006300216160A381216B3E6021B369
:101A000004F14003994202D0384600F069FA002000
:101A10002063F8BD2669C6B193B2256826609A078F
:101A20000CBF63690023AD1BA3600CE0D4F824C095
:101A3000E1692B4632463846E047B0F1000CA5EB91
:101A40000C05664416DD002DF0DC0020F8BDE36BCC
:101A5000002BA2DCF9E7206DB1E7B4F90C30226964
:101A6000226023F40063A3810022DB046260C4D5FA
:101A70002065C2E7A38943F040034FF0FF30A38104
:101A8000F8BD3B68002B98D01D2B06D0162B04D038
:101A9000A38943F04003A381F8BD3E60D5E700BFB2
:101AA00038B50D46044608B1836B1BB1B5F90C007F
:101AB00030B938BD00F01EF9B5F90C000028F8D097
:101AC00029462046BDE83840FFF75ABF38B5B8B1BF
:101AD0000F4B1D6804460DB1AB6B4BB1B4F90C0054
:101AE00000B938BD21462846BDE83840FFF748BF59
:101AF000284600F0FFF8B4F90C000028F1D0F1E717
:101B0000044B05491868BDE8384000F083BC00BFAD
:101B100008000020D83D0000A11A000000207047F6
:101B2000014900F077BC00BF153900000020704764
:101B30002DE9F84F2D4A4668C26300240323C0E90B
:101B4000B843074600F53B720423C0F8E82221465B
:101B5000C6E902430822C6E90044C6E904447466A3
:101B6000B46106F15C00FEF719FFDFF884B0BD68D0
:101B7000DFF880A0DFF88090DFF88080204BC6F887
:101B800024A0C6E9076BC6F82890C6F82C80082266
:101B9000EB60C5E90044C5E904446C66AC60AC6127
:101BA000214605F15C00FEF7F9FEC5E9075BC5E9D2
:101BB00009A9C5F82C80FD68124BEB60C5E900440B
:101BC000C5E904446C66AC60AC612146082205F1AD
:101BD0005C00FEF7E3FE0123C5E9075BC5E90A984F
:101BE000C5F824A0BB63BDE8F88F00BF211B00002F
:101BF00091320000B9320000F932000019330000C0
:101C0000090001001200020070B568224D1E02FB9F
:101C100005F50E4605F1740100F006FD044640B1DD
:101C200000210C30C4E90016A06005F16802FEF73F
:101C3000B5FE204670BD00BF274B2DE9F0411E6860
:101C4000B36B07465BB306F538764FF00408D6E968
:101C50000134013B04D51EE05A1C04F168041AD07B
:101C6000B4F90C50013B002DF6D11C4B6566C4E95C
:101C70000055C4E90253C4E90455A5610822294668
:101C800004F15C00FEF78AFEC4E90C55C4E9115565
:101C90002046BDE8F08135682DB12E46D7E73046A5
:101CA000FFF746FFCFE74FF4D671384600F0BCFC93
:101CB000044668B10560C0F804800C302946A06075
:101CC00025464FF4D072FEF769FE34602E46BEE71B
:101CD0000C2330603B60DBE7D83D00000100FFFFD4
:101CE000024B0349186800F095BB00BFD83D0000C7
:101CF00015390000836B03B1704719E7704700BFC7
:101D0000704700BF704700BF704700BF024B0349D8
:101D1000186800F05FBB00BF080000201D1B00001A
:101D2000024B0349186800F055BB00BF08000020B3
:101D30002D1B00002DE9F04383B00746884614466A
:101D400000F0ACFB012803D108F1FF33FE2B37D99B
:101D5000424604F15C0301A9384601F023FD421C10
:101D6000064633D038B39DF804C00DF105090025AF
:101D700009E023685A1C226083F800C00135B5428F
:101D800019D219F801CBA368013B002BA360F0DA4C
:101D9000D4F818E0734561462246384602DBBCF1B0
:101DA0000A0FE6D101F09AFC431CE7D10646304603
:101DB00003B0BDE8F0834646304603B0BDE8F0838B
:101DC0005FFA88FC8DF804C00646CEE7A38930464A
:101DD00043F04003A38103B0BDE8F083B2F90C30B7
:101DE00013F4005F0AD110B4546E43F4005344F46A
:101DF00000545466938110BCFFF79CBFFFF79ABF55
:101E00000E4B70B51E6805460C460EB1B36B8BB118
:101E1000B4F90C309A0406D4626E43F4005342F4D1
:101E20000052A3816266224629463046BDE87040D2
:101E3000FFF780BF3046FFF75DFFE9E708000020AD
:101E4000F8B5244F0C46064601F020F8BA685568EC
:101E5000C4F57E630F3325F003052B4423F47F6321
:101E600023F00F03A3F58054B4F5805F07DB002156
:101E7000304601F0FBF9BB682B44984204D0304651
:101E800001F006F80020F8BD6142304601F0EEF99D
:101E900001300DD0104ABB682D1B45F001055D6077
:101EA000136830461B1B136000F0F2FF0120F8BDE1
:101EB0000021304601F0DAF9BA68831A0F2BDEDD13
:101EC00043F001035360054B03491B68C01A0860C7
:101ED000D5E700BFA4050020E0090020AC090020E0
:101EE000002961D0F8B50C46064600F0CFFF54F843
:101EF000042C7B4FA4F1080522F0010105EB010C35
:101F0000B868DCF80430604523F0030300F08B80F0
:101F1000D207CCF8043032D454F8082CAD1A11444E
:101F2000AA6807F1080082426AD00CEB0304D4F8D7
:101F300004E0EC68D4601EF0010FA26000F097800E
:101F400041F001036B60CCF80010B1F5007F35D291
:101F50007A68CB0848090121013381401143796037
:101F600007EBC30257F83310083AC5E9021247F8E5
:101F70003350CD603046BDE8F84000F089BF0CEB2F
:101F800003025268D00710D4194407F10800DCF8A6
:101F90000830834273D0DCF80C20DA60936041F0A3
:101FA00001036B606950D0E7704741F00103B1F560
:101FB000007F44F8043CCCF80010C9D3B1F5206F81
:101FC0004FEA512348D28B0903F1390003F138025B
:101FD000C300F818FB580838984259D05A6822F0C4
:101FE00003028A4202D99B689842F7D1D868C5E9B2
:101FF00002308560DD603046BDE8F84000F048BF43
:102000000CEB03025268D20763D40B44DCE90212E2
:10201000CA60916043F001026A603046EB50BDE84F
:10202000F84000F035BF0B44D10707D454F8082C12
:10203000AD1A1344D5E90212CA60916043F001025F
:102040006A60284ABD6012689A4293D8264B30468F
:102050001968FFF7F5FE8DE7142B0AD9542B1FD80A
:102060000B0B03F16F0003F16E02C300B1E71944DB
:102070008DE703F15C0003F15B02C300A9E741F0C7
:102080000103C7E90455C5E902006B60695071E7B7
:1020900079689210012404FA02F20A437A60A6E7F2
:1020A000B3F5AA7F06D8CB0B03F1780003F17702D2
:1020B000C3008EE740F25452934206D88B0C03F1D2
:1020C0007D0003F17C02C30083E74FF47E737E2220
:1020D0007FE741F001036B60CCF800104AE700BFD6
:1020E000A4050020B0090020DC0900209368002B23
:1020F00000F081802DE9F04FB1F90C300C46190742
:10210000804683B0174698B223D523690BB310F0ED
:1021100002033D682BD04FF0000ADFF8B4B25646F8
:102120005E453346524628BF5B464046002E4FD0A0
:10213000E169D4F824C0E047002852DDBB681B1ACF
:102140008244361ABB60002BEAD1002003B0BDE800
:10215000F08F21464046FFF713FB002840F0348102
:10216000B4F90C303D6898B210F00203D3D110F0EE
:10217000010942D14E463EB38205D4F808B040F181
:102180008180B3455A4600F2B18010F4906F40F060
:10219000BE8020680192494600F0FCFDA3682168DA
:1021A000019AA3EB0B030A44B246A3602260002607
:1021B000B868A0EB0A00D144B8600028C5D0B4F9D3
:1021C0000C0080B2002ED7D1D5E900960835D2E7B1
:1021D000D5E900A60835A3E721464046FFF760FC95
:1021E00080B3B4F90C3043F040034FF0FF30A381CB
:1021F00003B0BDE8F08F002070471E46AA469946FE
:1022000018461D4656B388B34A46D4E904132068DD
:10221000B24228BF3246884205D9A16803EB010BC0
:102220005A4500F3A780934264DCE169D4F824C0E6
:102230002A464046E047B0F1000BD2DDB9EB0B096E
:10224000CAD00120BB68A3EB0B035D44A6EB0B06D1
:10225000BB60002B3FF479AF002ED4D10AF1080304
:1022600053E902569A460833002EF9D032460A2125
:10227000284600F0A5FC002800F09D800130A0EB6E
:102280000509C1E720682369984217D86369B342FA
:1022900014D86FF00042B24228BF3246E16992FB87
:1022A000F3F2D4F824C002FB03F340464A46E04769
:1022B000B0F1000A95DDA6EB0A0679E7B345DA46E8
:1022C00028BFB2465246494600F064FDA368226822
:1022D000A3EB0A035244A3602260002BEBD12146FA
:1022E0004046FFF7DDFB0028E5D07AE72068B346DB
:1022F00032464FE72946019200F04CFD019AA3684F
:102300009B1AA360236813442360934696E72368CF
:102310002169A3EB010B636903EB430A0AEBDA7A49
:102320000BF101034FEA6A0A33445345524684BF16
:102330009A46524643052CD51146404600F074F9A2
:1023400000283BD05A462169019000F089FCA289FF
:10235000019B22F4906242F08002A28103EB0B0009
:102360002361AAEB0B03C4F814A0A3602060B3465A
:1023700032460FE729465A4600F00CFD23685B44BD
:10238000236021464046FFF78BFB00283FF456AF01
:1023900027E7404600F07EFD03460028DED1216994
:1023A0004046FFF79DFDB4F90C300C2223F080036A
:1023B000C8F8002017E7721C914626E70C22B4F9F2
:1023C0000C30C8F800200EE74FF0FF30BEE600BF2B
:1023D00000FCFF7F2DE9F041884600F538770026A4
:1023E000D7E90154013D0FD4A389012B05F1FF3535
:1023F00006D9B4F90E300133204601D0C047064358
:102400006B1C04F16804EFD13F68002FE8D130461F
:10241000BDE8F0812DE9F8430746884600F5387697
:102420004FF00009D6E90154013D11D4A389012BD5
:1024300005F1FF3508D9B4F90E300133214603D038
:102440003846C04749EA00096B1C04F16804EDD125
:102450003668002EE6D14846BDE8F88342B110B593
:102460000B491046144600F05FFF18B9094810BD2B
:10247000084870470749204600F056FF0028F5D06D
:102480000549204600F050FF0028EFD0002010BD85
:10249000303E00002C3E0000EC3D0000014B93F864
:1024A000280170473804002041B110B50C46204681
:1024B0000A4900F039FF18B9094810BD08487047AB
:1024C0000749204600F030FF0028F5D00549204696
:1024D00000F02AFF0028EFD0002010BD303E0000A1
:1024E0002C3E0000EC3D00002DE9F0418B890C46AC
:1024F000990796B008D504F143030122C4E90432D8
:10250000236016B0BDE8F081B4F90E10002906462C
:1025100027DB6A4601F036FA002821DB019D05F42D
:102520007045A5F50055B5FA85F54FF480686D093D
:102530004FF400674146304600F076F8B4F90C30AD
:10254000F0B1204AF26343F08003C4F81480A38101
:102550002060206135BB3B43A38116B0BDE8F0810C
:10256000A38913F0800519D04FF04008414630464A
:1025700000F05AF80025B4F90C302F460028E0D1BD
:102580009A05BED423F0030304F1430243F002038F
:102590000121C4E90421A3812260B2E74FF48068DD
:1025A0002F46C7E7B4F90E10304601F001FA10B912
:1025B000B4F90C30CFE7A38923F0030343F0010300
:1025C0001BB2C8E7211B000070B50C46B1F90E1014
:1025D000002996B015461E4614DB6A4601F0D2F972
:1025E00000280FDB019A02F47042A2F50052B2FA01
:1025F00082F24FF4806352094FF4006032602B6026
:1026000016B070BDB4F90C10002311F080003360D7
:1026100004D0402218462A6016B070BD4FF4806383
:102620002B6016B070BD00BF2DE9F04F01F10B0615
:10263000162E83B0044624D8102900F2BA8000F088
:1026400025FC102618220220B74F3A44A2F10801B7
:1026500053688B4200F0BA805A68D96822F00302AE
:102660001A449D68E9608D60516841F0010120467F
:10267000516003F1080500F00BFC284603B0BDE8EB
:10268000F08F36F0070600F19480B14200F291809D
:1026900000F0FCFBB6F5FC7FC0F09681730A00F0F9
:1026A0008F80042B00F26B81B30903F1390003F131
:1026B000380CC3009C4F3B44A3F108055B689D4266
:1026C00006D10CE0002980F22B81DB689D4206D008
:1026D0005A6822F00302911B0F29F3DD60463D6921
:1026E000DFF848C265457CD06A6822F00302931B7C
:1026F0000F2B00F37781002BC7E904CC80F26881AF
:10270000B2F5007F80F01681D308796801334FEA73
:10271000521E012202FA0EF20A4357F833E0C5F8BE
:1027200008E007EBC3010839E9607A6047F83350E5
:10273000CEF80C50831001219940914257D8114294
:1027400006D120F003004900114200F10400FAD044
:1027500007EBC0094D468646D5F80C80454508D1A3
:1027600019E1002B80F22081D8F80C80454500F05B
:102770001281D8F8042022F00302931B0F2BF0DD06
:102780002046D8E9025408EB060146F00106C8F8D5
:102790000460EC60A56043F00104C7E90411C1E9DD
:1027A00002CC4C6048F8023000F072FB08F10805DA
:1027B00002E00C2323600025284603B0BDE8F08F1B
:1027C0004FF4007340204FF03F0C73E7D3689A42F8
:1027D00008BF02307FF440AF3D69DFF850C1654566
:1027E00082D17A688310012199409142A7D9BD68AE
:1027F0006B6823F00308464503D8A8EB06030F2BAC
:102800007EDCDFF82C91D7F80824D9F800300132AB
:10281000334405EB080A00F02F8103F580530F3392
:1028200023F47F6B2BF00F0B5946204600F01EFD62
:10283000411C024600F0EF80824500F2EA80D9F8A0
:1028400004105944C9F804100B4600F04B81D7F826
:10285000081401311BBFA2EB0A0A5344C7F808242D
:10286000C9F8043012F0070300F01281C3F1080127
:102870000A44C3F5805193440831A1EB0B01C1F325
:102880000B0A514620460192009300F0EFFC421CD7
:10289000DDE9003200F04B81831A03EB0A0BD9F813
:1028A0000400BA604BF001030AEB0001BD42536023
:1028B000C9F8041000F02281B8F10F0F40F2208116
:1028C0006B68A8F10C0020F0070003F0010303433C
:1028D0006B604FF0050C2B180F28C3E901CC00F2F8
:1028E0002D8153681546D9F82C208A42D9F830201A
:1028F00038BFC9F82C108A4238BFC9F830108CE0B4
:10290000AA1943F0010346F001066E602046BA6042
:10291000536000F0BDFA0835284603B0BDE8F08FDB
:10292000D9681A449DE600BFA4050020AC0500202C
:10293000DC090020B2F5206F4FEA522363D3142B39
:1029400000F2B88003F15C01C9005B3307EB010EB4
:102950007958AEF1080E8E4500F091804B6823F057
:102960000303934202D989688E45F7D1D1F80CE070
:102970007A68C5E9021ECEF80850CD60DAE6142B5D
:1029800059D9542B00F29E80330B03F16F0003F1F1
:102990006E0CC3008EE60EF1010E1EF0030F05F162
:1029A00008057FF4D9AE51E0424445465368D8F853
:1029B0000C1043F00103536055F8083F2046D960DE
:1029C0008B6000F065FAF7E6F00806F108023BE6D6
:1029D0002A442046536843F001035360083500F051
:1029E00057FAE9E6A919204646F0010643F001042A
:1029F0006E60C7E90411C1E902CC4C60AB5000F035
:102A000047FA0835D8E6930903F13901C90038338C
:102A10009CE7BD4260D0BD686B6823F0030B5E4548
:102A2000ABEB060302D80F2B3FF76AAF204600F04E
:102A30002FFA0025C0E603F15C0003F15B0CC30034
:102A400038E659F808394B4540F0968010F0030FEE
:102A500000F1FF30F5D17B6823EA01037B60490078
:102A600099423FF6C4AE19B9C1E649000EF1040E11
:102A70001942FAD070466BE603F1100BD4E69A10B7
:102A80004FF001087B6808FA02F21A437A6070E797
:102A900002EB0B014942C1F30B0A51462046019358
:102AA000009200F0E3FB431CDDE900237FF4F4AE69
:102AB0009A46F4E6542B26D8130B03F16F01C90094
:102AC0006E3343E7B3F5AA7F26D8F30B03F1780002
:102AD00003F1770CC300EDE5D9F804305B44C9F885
:102AE0000430B4E6CAF30B0000287FF4B0AEBD6832
:102AF00008EB0B0343F001036B60F4E61546F2E6C6
:102B00000123536092E7B3F5AA7F21D8D30B03F1D9
:102B10007801C900773319E740F25452934221D823
:102B2000B30C03F17D0003F17C0CC300C2E5083B4C
:102B30009B44ABEB020B4FF0000AB0E605F1080135
:102B40002046FFF7CDF9BD68D9F804106B68CAE6D6
:102B500040F254518B420BD8930C03F17D01C90014
:102B60007C33F3E64FF47E737F204FF07E0CA1E5BB
:102B70004FF47E717E23E9E67B6870E710B4034C66
:102B8000D4F8E440A44610BC604700BF38040020DD
:102B900082B049B15AB16BB113780B601278101E34
:102BA00018BF012002B0704701A9002AF3D11046D6
:102BB00002B070476FF00100F4E700BF00000000B2
:102BC00001F0FF01102A2BDB10F0070F08D010F8DE
:102BD000013B013A8B422DD010F0070F42B3F6D1E2
:102BE000F0B441EA012141EA014122F007047FF0FB
:102BF00000070023F0E80256083C85EA010586EA52
:102C0000010685FA47F5A3FA87F586FA47F6A5FA8D
:102C100087F68EB9EED1F0BC01F0FF0102F0070299
:102C200032B110F8013B013A83EA010313B1F8D144
:102C30000020704701387047002D06BF3546033825
:102C4000073815F0010F07D1013015F4807F02BF5E
:102C5000013015F4C03F0130F0BC0138704700BFAF
:102C6000844641EA000313F003036DD1403A41D397
:102C700051F8043B40F8043B51F8043B40F8043B56
:102C800051F8043B40F8043B51F8043B40F8043B46
:102C900051F8043B40F8043B51F8043B40F8043B36
:102CA00051F8043B40F8043B51F8043B40F8043B26
:102CB00051F8043B40F8043B51F8043B40F8043B16
:102CC00051F8043B40F8043B51F8043B40F8043B06
:102CD00051F8043B40F8043B51F8043B40F8043BF6
:102CE00051F8043B40F8043B51F8043B40F8043BE6
:102CF000403ABDD2303211D351F8043B40F8043B86
:102D000051F8043B40F8043B51F8043B40F8043BC5
:102D100051F8043B40F8043B103AEDD20C3205D395
:102D200051F8043B40F8043B043AF9D2043208D08D
:102D3000D2071CBF11F8013B00F8013B01D30B88FF
:102D400003806046704700BF082A13D38B078DD0DD
:102D500010F003038AD0C3F10403D21ADB071CBFAF
:102D600011F8013B00F8013B80D331F8023B20F819
:102D7000023B7BE7043AD9D3013A11F8013B00F852
:102D8000013BF9D20B7803704B7843708B788370DA
:102D90006046704788420DD98B1883420AD900EBF0
:102DA000020CBAB1624613F801CD02F801CD994286
:102DB000F9D170470F2A0ED8034602F1FF3C4AB101
:102DC0000CF1010C013B8C4411F8012B03F8012F8D
:102DD0006145F9D1704740EA01039B0750D1A2F148
:102DE000100370B501F1200C23F00F0501F1100E56
:102DF00000F11004AC441B095EF8105C44F8105C50
:102E00005EF80C5C44F80C5C5EF8085C44F8085C06
:102E10005EF8045C44F8045C0EF1100EE64504F123
:102E20001004E9D1013312F00C0F01EB031102F091
:102E30000F0400EB031327D0043C24F003064FEAF1
:102E4000940C1E441C1F8E465EF8045B44F8045F1D
:102E5000B442F9D10CF1010402F0030203EB840344
:102E600001EB840102F1FF3C4AB10CF1010C013B82
:102E70008C4411F8012B03F8012F6145F9D170BD85
:102E800002F1FF3C03469BE72246EBE7704700BF99
:102E9000704700BF2DE9F84F1746002900F09880D1
:102EA00007F10B0580460C46FFF7F0FF162D5DD8A5
:102EB00010252A46AF425ED854F8041C21F00306C0
:102EC0009642A4F1080962DABC4BD3F808C009EBBA
:102ED0000600844500F09780D0F804C02CF0010370
:102EE00003445B68DB0768D42CF0030C06EB0C038F
:102EF000934247DACB0710D454F8083CA9EB030AF5
:102F0000DAF8043023F003018C44B444944580F291
:102F100011817318934280F2E88039464046FFF7EA
:102F200083FB0746E0B154F8043C23F001034B4413
:102F3000A0F10802934200F0D280321F242A00F24E
:102F4000F580132A00F2AC8003462246116819600E
:102F50005168596092689A6021464046FEF7C0FF6A
:102F60004046FFF795FF3846BDE8F88F25F0070586
:102F7000002D2A469EDA0C23C8F800300027384678
:102F8000BDE8F88F1E46D0E90223D3609A60731B18
:102F90000F2B22D8D9F8043003F0010333434E44F9
:102FA000C9F80430736843F0010373604046274654
:102FB000FFF76EFF3846BDE8F88FC907ADD454F867
:102FC000083CA9EB030ADAF8041021F00301A0E79A
:102FD000BDE8F84F1146FFF727BBD9F8041001F000
:102FE00001012943C9F8041009EB05014E4443F0DF
:102FF00001034B60736843F001030831736040467E
:10300000FEF76EFFD2E7DCF8040020F0030B06EBBE
:103010000B0C05F1100084454DDAC9073FF57DAF73
:1030200054F8081CA9EB010ADAF8041021F0030196
:103030008B44B34458453FF76CAF5746DAF80C1051
:1030400057F8080F321F242AC160886000F2DB8025
:10305000132A40F2D6802168CAF808106168CAF8BD
:103060000C101B2A00F2DF8008340AF110022168DC
:10307000116061685160A16891600AEB0501ABEBDA
:10308000050242F0010299604A60DAF8043003F068
:1030900001031D434046CAF80450FFF7F9FE6EE7EE
:1030A00023680360636843601B2A68D804F1080240
:1030B00000F108034AE709EB05029A60ACEB05034F
:1030C00043F00103536054F8043C03F001031D4333
:1030D000404644F8045CFFF7DBFE27464FE750F814
:1030E000043C23F003031E4451E75746DAF80C1062
:1030F00057F8080F321F242AC16088604CD8132A61
:1031000048D92168CAF808106168CAF80C101B2A4F
:1031100056D808340AF110021E462368136063680B
:103120005360A3689360D1463C4630E72146FFF7E1
:1031300031FE11E7D0E902135746CB60996057F88A
:10314000081FDAF80C30CB60321F242A99602DD882
:10315000132A29D92368CAF808306368CAF80C30E2
:103160001B2A42D808340AF1100322681A606268E8
:103170005A60A2689A606646D1463C4607E7A36853
:103180008360E368C360242A26D004F1100200F1B2
:103190001003DBE63A46BFE7214638461E46D146D5
:1031A000FFF7F8FD3C46F2E63B46DEE721463846AF
:1031B0006646D146FFF7EEFD3C46E8E6A405002052
:1031C000A168CAF81010E168CAF81410242A20D0A7
:1031D00010340AF118029FE72369036161694161B4
:1031E00004F1180200F11803B0E6A368CAF8103021
:1031F000E368CAF81430242A21D010340AF11803E5
:10320000B3E73A4633E721463846FFF7C3FD164B8E
:1032100033E72269CAF818206269CAF81C201834FA
:103220000AF1200278E7A168CAF81010E168CAF82C
:103230001410242A0DD010340AF1180217E723695C
:10324000CAF818306369CAF81C3018340AF1200330
:103250008BE72269CAF818206269CAF81C20183462
:103260000AF1200203E700BFA405002038B5074D8E
:103270000022044608462A6000F078FD431C00D076
:1032800038BD2B68002BFBD0236038BD100A00200E
:1032900010B50C46B1F90E1000F0B2FB002803DBAC
:1032A000236D0344236510BDA38923F48053A381B8
:1032B00010BD00BF002070472DE9F0410C46B1F968
:1032C0000C101F46CB05054616460BD421F4805141
:1032D000A1813B46B4F90E1032462846BDE8F041C4
:1032E00000F0BEBAB4F90E100223002200F072FB07
:1032F000B4F90C10EAE700BF10B50C46B1F90E1096
:1033000000F068FBA389421C0EBF23F4805343F4F2
:1033100080532065A38110BDB1F90E1000F0B6BA3C
:10332000A2EB0300704700BF02780B78012A28BF88
:103330009A42F5D16DE9044540EA0104CDE90267FE
:103340006FF0000C4FEA447212B380EA010414F0EB
:10335000070F6AD100F0070420F0070004F003050E
:1033600021F007014FEAC505F0E8042314F0040F2B
:10337000F1E804670CFA05F462EA040266EA04065E
:103380000AD063EA0403624667EA0407664603E07C
:10339000F0E80423F1E8046782FA4CF582EA0604B7
:1033A000A4FA8CF46CBB83FA4CF583EA0705A5FA02
:1033B0008CF595B950E9022351E9026782FA4CF580
:1033C00082EA0604A4FA8CF483FA4CF583EA070532
:1033D000A5FA8CF52543DBD09CB92DBAB5FA85F456
:1033E00024F0070427FA04F1DDE9026723FA04F365
:1033F00003F0FF0001F0FF01FDE80445A0EB010030
:10340000704724BAB4FA84F424F0070426FA04F1CD
:10341000DDE9026722FA04F202F0FF0001F0FF0189
:10342000FDE80445A0EB0100704714F0030F3CD108
:1034300010F0030428D150F8082B51F8083B82FA09
:103440004CF582EA0305A5FA8CF55DB950F8042C19
:1034500051F8043C82FA4CF582EA0305A5FA8CF592
:10346000002DE8D02DBAB5FA85F424F0070423FA2C
:1034700004F122FA04F202F0FF0001F0FF01FDE87E
:103480000445A0EB010070474FEAC40420F003009C
:1034900050F8082B21F0030151F8083B0CFA04F412
:1034A00062EA040263EA0403C9E710F003041AD0D5
:1034B000A1EB040120F00300E40750F8042B06D030
:1034C0000FD28B785FFAA2F4E41A06D12BB1CB7835
:1034D0005FFAB2F4E41A00D11BB920465DF8104B34
:1034E000704701F1040150F8042BCC0721F00301CF
:1034F00051F8043B48D824D222F07F4482FA4CF59C
:1035000094EA1325A5FA8CF50AD165B951F8043B64
:1035100084EA0204B4EB036F0ED150F8042BEBE7FE
:103520004FEA132355E035F07F454DD10878FDE88B
:103530000445C0F1000070474FEA126203F0FF0338
:1035400047E002EA1C4482FA4CF594EA1345A5FAD6
:103550008CF50AD165B951F8043B84EA0204B4EB56
:10356000034F0CD150F8042BEBE74FEA134330E044
:1035700015EA1C4528D10B884FEA124229E04FEA90
:10358000124203EA1C4324E002F0FF0482FA4CF5E5
:1035900094EA1365A5FA8CF50AD165B951F8043B94
:1035A00084EA0204B4EB032F09D150F8042BEBE7B3
:1035B0004FEA13630DE015F0FF0F05D10B684FEADA
:1035C000122223F07F4304E04FF00000FDE80445A1
:1035D000704712BA1BBA82FA4CF482EA0304A4FAC6
:1035E0008CF5B5FA85F402FA04F203FA04F34FEA13
:1035F0001260FDE80445A0EB136070470000000076
:1036000090F800F06DE9024520F007016FF0000C22
:1036100010F0070491F820F040F049804FF00004CA
:103620006FF00700D1E9002391F840F000F10800A5
:1036300082FA4CF2A4FA8CF283FA4CF3A2FA8CF3DD
:103640004BBBD1E9022382FA4CF200F10800A4FA44
:103650008CF283FA4CF3A2FA8CF3E3B9D1E9042398
:1036600082FA4CF200F10800A4FA8CF283FA4CF3CF
:10367000A2FA8CF37BB9D1E9062301F1200182FA89
:103680004CF200F10800A4FA8CF283FA4CF3A2FA8F
:103690008CF3002BC6D0002A04BF04301A4612BA9D
:1036A000B2FA82F2FDE8024500EBD2007047D1E9A0
:1036B000002304F00305C4F100004FEAC50514F02F
:1036C000040F91F840F00CFA05F562EA05021CBF00
:1036D00063EA050362464FF00004A9E7F8B50D461A
:1036E0001446064610B1836B002B43D0B4F90C206E
:1036F000A369A360170790B21BD52369CBB1EDB2C4
:1037000081042F4622D522686169D31A994229DDA6
:103710000133A1680139A160511C216015706269F3
:103720009A422AD0A389DB0701D50A2D25D0384635
:10373000F8BD21463046FEF723F820BBB4F90C2033
:10374000236990B2EDB281042F46DCD442F40052DA
:10375000A281626E616922F4005262662268D31A05
:103760009942D5DC21463046FEF79AF958B92268CD
:103770000123CEE7FEF7BEFAB8E721463046FEF752
:103780008FF90028D3D04FF0FF37D0E710B4044CA6
:1037900003460A46206810BC1946FFF79FBF00BFCA
:1037A0000800002070B5054684B01C4639B10B4EA8
:1037B000D6F8E060B047431C09D004B070BD0A469B
:1037C0000649D1F8E06001A9B047431CF5D10022B9
:1037D0008A2322602B6004B070BD00BF3804002033
:1037E00070B5114B84B01D6814460B46014650B1AC
:1037F0000E481A46D0F8E06023462846B047431CDE
:103800000BD004B070BD094A2346D2F8E06001A98C
:1038100002462846B047431CF3D100228A23226087
:103820002B6004B070BD00BF0800002038040020E9
:1038300010B4034CD4F8E040A44610BC604700BF6D
:103840003804002049B1FF2A02D80A7001207047CD
:103850008A2303604FF0FF3070470846704700BF6F
:1038600038B50C46084D8446114620461A460023BA
:103870002B606446FCF740FD431C00D038BD2B682C
:10388000002BFBD0236038BD100A002038B5074D4F
:103890000022044608462A6000F040FA431C00D08B
:1038A00038BD2B68002BFBD0236038BD100A0020E8
:1038B00070B50C460646FEF763F8E36A054633B179
:1038C000E169304698470028B8BF4FF0FF35A3891B
:1038D0001B0619D4216B41B104F14003994202D077
:1038E0003046FEF7FDFA00232363616C21B13046B8
:1038F000FEF7F6FA00236364FEF700FA0023A381C3
:10390000FEF7FEF9284670BD21693046FEF7E8FA59
:10391000E0E700BFB1B138B505460C4608B1836B8E
:103920004BB1B4F90C300BB9002038BD2146284604
:10393000BDE83840BCE7FEF7DDF9B4F90C30002BE8
:10394000F2D0F3E700207047C0B138B50C4B1D68CA
:1039500004460DB1AB6B4BB1B4F90C300BB9002080
:1039600038BD21462846BDE83840A1E72846FEF785
:10397000C1F9B4F90C30002BF1D0F2E70020704708
:103980000800002070B50C46084D0346002620466E
:1039900011461C462E6000F0C9F9431C00D070BDD2
:1039A0002B68002BFBD0236070BD00BF100A0020E5
:1039B00038B5074D0022044608462A6000F0BEF9DB
:1039C000431C00D038BD2B68002BFBD0236038BDD2
:1039D000100A002038B50C46084D84461146204692
:1039E0001A4600232B60644600F0B0F9431C00D057
:1039F00038BD2B68002BFBD0236038BD100A002097
:103A000038B50C46084D8446114620461A46002318
:103A10002B60644600F0A2F9431C00D038BD2B682F
:103A2000002BFBD0236038BD100A002053B94AB9DF
:103A3000002908BF00281CBF4FF0FF314FF0FF30B6
:103A400000F06AB9ADF1080C6DE904CE00F006F89B
:103A5000DDF804E0DDE9022304B070472DE9F0470A
:103A6000089D0C46002B4ED194468C458646B2FAF2
:103A700082F262D94AB1C2F12003914020FA03F3E5
:103A80000CFA02FC194300FA02FE4FEA1C471FFA27
:103A90008CF6B1FBF7F44FEA1E4307FB141143EA1F
:103AA000014304FB06F199420AD91CEB030304F11C
:103AB000FF3080F01381994240F21081023C634450
:103AC000591A1FFA8EF3B1FBF7F007FB101143EA06
:103AD000014300FB06F69E420AD91CEB030300F1EA
:103AE000FF3180F0FD809E4240F2FA80634402384C
:103AF0009B1B40EA044000211DB1D3400022C5E9D0
:103B00000032BDE8F0878B4205D90DB1C5E900014F
:103B100000210846F5E7B3FA83F1002946D1A34214
:103B200002D39042C0F0F180861A64EB03030120B7
:103B3000002DE6D0C5E90063E3E7002A40F091805C
:103B4000A1EB0C044FEA1C481FFA8CF70121B4FBCF
:103B5000F8F64FEA1E4308FB164443EA044307FB0A
:103B600006F0984208D91CEB030306F1FF3402D299
:103B7000984200F2CE8026461C1A1FFA8EF3B4FB40
:103B8000F8F008FB104443EA044300FB07F79F42A8
:103B900008D91CEB030300F1FF3402D29F4200F26C
:103BA000B1802046DB1B40EA0640A5E7C1F12006B4
:103BB0008B4022FA06F71F4320FA06FC04FA01F3B1
:103BC00043EA0C03F44000FA01F8380C4FEA1349B9
:103BD000B4FBF0FE1FFA87FC00FB1E4449EA0444D4
:103BE0000EFB0CF9A14502FA01F20AD93C190EF1BB
:103BF000FF3A80F08580A14540F28280AEF1020E4E
:103C00003C44A4EB09041FFA83F9B4FBF0F300FB76
:103C1000134449EA044403FB0CFCA44507D93C19AE
:103C200003F1FF3068D2A44566D9023B3C4443EA25
:103C30000E40A0FB0293A4EB0C049C42CE469C4693
:103C400052D34FD055B1B8EB0E0364EB0C0404FA19
:103C500006F6CB40CC401E43C5E900640021BDE818
:103C6000F087C2F1200320FA03F10CFA02FC24FAD7
:103C700003F394400C434FEA1C4800FA02FE1FFA7B
:103C80008CF7B3FBF8F008FB1031230C43EA014337
:103C900000FB07F1994208D91CEB030300F1FF3642
:103CA0002CD299422AD9023863445B1AA4B2B3FBDE
:103CB000F8F108FB113344EA034401FB07F3A34284
:103CC00008D91CEB040401F1FF3613D2A34211D929
:103CD00002396444E41A41EA004138E70446EFE659
:103CE000084605E7C845ADD2B9EB020E63EB070CF9
:103CF0000138A7E73146EDE7034698E73046D4E7B9
:103D0000D6467EE7634402384CE70646234608461B
:103D10000EE7023E63442FE7704700BF024B582274
:103D20001A604FF0FF307047100A0020024B5822F3
:103D30001A604FF0FF307047100A0020024B5822E3
:103D40001A600020704700BF100A0020024B582262
:103D50001A604FF0FF307047100A0020024B5822C3
:103D60001A604FF0FF307047100A0020044A0549DE
:103D70001368002B08BF0B461844106018467047A4
:103D8000140A0020180A0020FEE700BFF8B500BFA3
:103D9000F8BC08BC9E467047F8B500BFF8BC08BC2C
:103DA0009E4670475468652061766572616765203C
:103DB000677261646520696E2054544B25642077D6
:103DC000617320696E2025642C20616E6420256457
:103DD0003A2025630A0D00001000002030313233F4
:103DE00034353637383941424344454600000000F7
:103DF0003031323334353637383961626364656661
:103E000000000000286E756C6C2900002020202026
:103E10002020202020202020202020203030303062
:103E2000303030303030303030303030430000000F
:103E3000504F5349580000002E0000000020202061
:103E4000202020202020282828282820202020204A
:103E5000202020202020202020202020208810101A
:103E60001010101010101010101010101004040476
:103E70000404040404040410101010101010414134
:103E80004141414101010101010101010101010122
:103E90000101010101010101101010101010424236
:103EA00042424242020202020202020202020202F2
:103EB0000202020202020202101010102000000092
:103EC00000000000000000000000000000000000F2
:103ED00000000000000000000000000000000000E2
:103EE00000000000000000000000000000000000D2
:103EF00000000000000000000000000000000000C2
:103F000000000000000000000000000000000000B1
:103F100000000000000000000000000000000000A1
:103F20000000000000000000000000000000000091
:103F30000000000000000000000000000000000081
:043F4000000000007D
:083F440044C3FF7F01000000EF
:103F4C000090D003000000001000002000000000D2
:103F5C0000000000FC02002064030020CC030020C1
:103F6C000000000000000000000000000000000045
:103F7C000000000000000000000000000000000035
:103F8C000000000000000000000000000000000025
:103F9C000000000000000000000000000000000015
:103FAC000000000000000000000000000000000005
:103FBC0000000000000000000000000000000000F5
:103FCC0000000000000000000000000000000000E5
:103FDC0000000000000000000000000000000000D5
:103FEC0000000000000000000000000000000000C5
:103FFC0000000000000000000100000000000000B4
:10400C000E33CDAB34126DE6ECDE05000B00000078
:10401C000000000000000000000000000000000094
:10402C000000000000000000000000000000000084
:10403C000000000000000000000000000000000074
:10404C000000000000000000000000000000000064
:10437C0000000000000000004300000000000000EE
:10438C000000000000000000000000000000000021
:10439C0000000000000000004300000000000000CE
:1043AC000000000000000000000000000000000001
:1043BC0000000000000000004300000000000000AE
:1043CC0000000000000000000000000000000000E1
:1043DC00000000000000000043000000000000008E
:1043EC0000000000000000000000000000000000C1
:1043FC00000000000000000043000000000000006E
:10440C0000000000000000000000000000000000A0
:10441C00000000000000000043000000000000004D
:10442C000000000000000000000000000000000080
:10443C00000000000000000043000000000000002D
:10444C000000000000000000000000000000000060
:10445C00000000000000000045380000912B000017
:10446C00000000003C3E0000383E0000EC3D000027
:10447C00EC3D0000EC3D0000EC3D0000EC3D00008C
:10448C00EC3D0000EC3D0000EC3D0000EC3D00007C
:10449C00FFFFFFFFFFFFFFFFFFFFFFFFFFFF00001E
:1044AC000100415343494900000000000000000096
:1044BC0000000000000000000000000000000000F0
:1044CC000000415343494900000000000000000077
:1044DC0000000000000000000000000000000000D0
:1044EC00000000000000000000000000A4050020F7
:1044FC00A4050020AC050020AC050020B40500206C
:10450C00B4050020BC050020BC050020C40500201B
:10451C00C4050020CC050020CC050020D4050020CB
:10452C00D4050020DC050020DC050020E40500207B
:10453C00E4050020EC050020EC050020F40500202B
:10454C00F4050020FC050020FC05002004060020DA
:10455C00040600200C0600200C0600201406002087
:10456C00140600201C0600201C0600202406002037
:10457C00240600202C0600202C06002034060020E7
:10458C00340600203C0600203C0600204406002097
:10459C00440600204C0600204C0600205406002047
:1045AC00540600205C0600205C06002064060020F7
:1045BC00640600206C0600206C06002074060020A7
:1045CC00740600207C0600207C0600208406002057
:1045DC00840600208C0600208C0600209406002007
:1045EC00940600209C0600209C060020A4060020B7
:1045FC00A4060020AC060020AC060020B406002067
:10460C00B4060020BC060020BC060020C406002016
:10461C00C4060020CC060020CC060020D4060020C6
:10462C00D4060020DC060020DC060020E406002076
:10463C00E4060020EC060020EC060020F406002026
:10464C00F4060020FC060020FC06002004070020D5
:10465C00040700200C0700200C0700201407002082
:10466C00140700201C0700201C0700202407002032
:10467C00240700202C0700202C07002034070020E2
:10468C00340700203C0700203C0700204407002092
:10469C00440700204C0700204C0700205407002042
:1046AC00540700205C0700205C07002064070020F2
:1046BC00640700206C0700206C07002074070020A2
:1046CC00740700207C0700207C0700208407002052
:1046DC00840700208C0700208C0700209407002002
:1046EC00940700209C0700209C070020A4070020B2
:1046FC00A4070020AC070020AC070020B407002062
:10470C00B4070020BC070020BC070020C407002011
:10471C00C4070020CC070020CC070020D4070020C1
:10472C00D4070020DC070020DC070020E407002071
:10473C00E4070020EC070020EC070020F407002021
:10474C00F4070020FC070020FC07002004080020D0
:10475C00040800200C0800200C080020140800207D
:10476C00140800201C0800201C080020240800202D
:10477C00240800202C0800202C08002034080020DD
:10478C00340800203C0800203C080020440800208D
:10479C00440800204C0800204C080020540800203D
:1047AC00540800205C0800205C08002064080020ED
:1047BC00640800206C0800206C080020740800209D
:1047CC00740800207C0800207C080020840800204D
:1047DC00840800208C0800208C08002094080020FD
:1047EC00940800209C0800209C080020A4080020AD
:1047FC00A4080020AC080020AC080020B40800205D
:10480C00B4080020BC080020BC080020C40800200C
:10481C00C4080020CC080020CC080020D4080020BC
:10482C00D4080020DC080020DC080020E40800206C
:10483C00E4080020EC080020EC080020F40800201C
:10484C00F4080020FC080020FC08002004090020CB
:10485C00040900200C0900200C0900201409002078
:10486C00140900201C0900201C0900202409002028
:10487C00240900202C0900202C09002034090020D8
:10488C00340900203C0900203C0900204409002088
:10489C00440900204C0900204C0900205409002038
:1048AC00540900205C0900205C09002064090020E8
:1048BC00640900206C0900206C0900207409002098
:1048CC00740900207C0900207C0900208409002048
:1048DC00840900208C0900208C09002094090020F8
:1048EC00940900209C0900209C090020FFFFFFFF79
:1048FC00000002006D190000690200004102000076
:040000030000087978
:00000001FF
