:1000000000000220550700007D0700007F07000068
:100010008107000083070000850700000000000042
:100020000000000000000000000000008707000042
:1000300089070000000000008B0700008D0700000A
:100040008F0700008F0700008F0700008F07000058
:100050008F0700008F0700008F0700008F07000048
:100060008F0700008F0700008F0700008F07000038
:100070008F0700008F0700008F0700008F07000028
:100080008F0700008F0700008F0700008F07000018
:100090008F0700008F0700008F0700008F07000008
:1000A0008F0700008F0700008F0700008F070000F8
:1000B0008F0700008F070000000000000000000014
:1000C0008F0700008F0700008F0700008F070000D8
:1000D0008F0700008F0700008F0700008F070000C8
:1000E0008F0700000000000000000000000000007A
:1000F000000000008F070000000000008F070000D4
:1001000000000000000000000000000000000000EF
:1001100000000000000000000000000000000000DF
:1001200000000000000000000000000000000000CF
:1001300000000000000000000000000000000000BF
:1001400000000000000000000000000000000000AF
:10015000000000000000000000000000000000009F
:10016000000000000000000000000000000000008F
:10017000000000000000000000000000000000007F
:10018000000000000000000000000000000000006F
:10019000000000000000000000000000000000005F
:1001A000000000000000000000000000000000004F
:1001B000000000000000000000000000000000003F
:1001C000000000000000000000000000000000002F
:1001D000000000000000000000000000000000001F
:1001E000000000000000000000000000000000000F
:1001F00000000000000000000000000000000000FF
:100200000348044B834202D0034B03B118477047A5
:100210004404002044040020000000000548064972
:100220000B1AD90F01EBA301491002D0034B03B104
:1002300018477047440400204404002000000000D8
:1002400010B5064C237843B9FFF7DAFF044B13B11E
:100250000448AFF300800123237010BD4404002044
:1002600000000000200A000008B5044B1BB104493F
:100270000448AFF30080BDE80840CFE7000000006D
:1002800048040020200A0000A3F5803A704700BF10
:10029000154B002B08BF114B9D46FFF7F5FF0021C2
:1002A0008B460F461148124A121A00F0C1FA0C4B45
:1002B000002B00D098470B4B002B00D09847002014
:1002C000002104000D000B4800F062FA00F08CFAE7
:1002D0002000290000F032F800F060FA0000080069
:1002E0000000000000000000000002204404002084
:1002F00060040020BD07000080B400AF4FF0A043B1
:10030000D3F8103503F48043002B0CBF01230023E6
:10031000DBB21846BD4680BC704780B400AF4FF0DA
:10032000A043D3F8103503F40003002B0CBF0123C6
:100330000023DBB21846BD4680BC704780B582B052
:1003400000AF4FF0A0430122C3F854274FF0A04361
:100350000122C3F858274FF0A0430122C3F83C27DD
:100360004FF0A0430122C3F860274FF0A0430122C1
:10037000C3F84C274FF0A0430122C3F870274FF079
:10038000A0430122C3F82C274FF0A0430122C3F859
:100390007C27404B0122C3F814274FF0A0430122D1
:1003A000C3F878274FF0A0430022C3F838274FF056
:1003B000A0430022C3F85C2700237B60FFF7ADFF5A
:1003C0000346002B39D04FF0A0434FF08052C3F8C2
:1003D0000C254FF0A0434FF40062C3F80C254FF0FA
:1003E000A0434FF00042C3F80C252A4B2022C3F84B
:1003F0000C254FF0A0434FF08042C3F80C254FF07E
:10040000A0434FF40012C3F808254FF0A0434FF467
:100410008002C3F808254FF0A0434FF40042C3F810
:1004200008254FF0A0434FF08072C3F808254FF025
:10043000A0434FF40022C3F80825FFF75DFF0346F1
:10044000002B1CD04FF0A0434FF40062C3F80825E6
:100450004FF0A0434FF08052C3F808254FF0A0435F
:100460004FF00042C3F808254FF0A0432022C3F804
:1004700008254FF0A0434FF08042C3F8082542F210
:1004800010737B607B68013B7B607B68002BF9D13C
:1004900094E700BF0003005080B483B000AF0E4B60
:1004A0001B687B600D4B1B683B607B680D2B0CD180
:1004B0003B68002B03D03B68012B02D003E00123F3
:1004C00004E0012302E0012300E0002318460C377A
:1004D000BD4680BC704700BF3001001034010010E1
:1004E00080B483B000AF0E4B1B687B600D4B1B6864
:1004F0003B607B680D2B0CD13B68002B03D03B6825
:10050000012B02D003E0012304E0012302E00123D8
:1005100000E0002318460C37BD4680BC704700BF82
:10052000300100103401001080B483B000AF0E4BD6
:100530001B687B600D4B1B683B607B680D2B0CD1EF
:100540003B68002B03D03B68012B02D003E0012362
:1005500004E0012302E0012300E0002318460C37E9
:10056000BD4680BC704700BF300100103401001050
:1005700080B483B000AF0E4B1B687B600D4B1B68D3
:100580003B607B680D2B0CD13B68002B03D03B6894
:10059000012B02D003E0002304E0012302E0012349
:1005A00000E0002318460C37BD4680BC704700BFF2
:1005B000300100103401001080B500AFFFF7D8FF04
:1005C0000346002B07D04FF010234FF08042D3F8A2
:1005D0000832C2F8583500BF80BD000080B400AFBB
:1005E000034B044A1A6000BFBD4680BC704700BF81
:1005F000000000200090D00380B500AFFFF74CFF53
:100600000346002B0ED04FF080430022C3F80C218C
:100610004FF080430022C3F810214FF080430022A6
:10062000C3F83825FFF75CFF0346002B76D04FF068
:100630008053474AD3F80434C2F820354FF0805332
:10064000434AD3F80834C2F824354FF08053404A67
:10065000D3F80C34C2F828354FF080533C4AD3F815
:100660001034C2F82C354FF08053394AD3F8143483
:10067000C2F830354FF08053354AD3F81834C2F8F9
:1006800034354FF08053324AD3F81C34C2F8403529
:100690004FF080532E4AD3F82034C2F844354FF03F
:1006A00080532B4AD3F82434C2F848354FF0805396
:1006B000274AD3F82834C2F84C354FF08053244AE7
:1006C000D3F82C34C2F850354FF08053204AD3F879
:1006D0003034C2F854354FF080531D4AD3F83434C7
:1006E000C2F860354FF08053194AD3F83834C2F855
:1006F00064354FF08053164AD3F83C34C2F868355D
:100700004FF08053124AD3F84034C2F86C354FF0A2
:1007100080530F4AD3F84434C2F87035FFF704FF12
:100720000346002B0DD04FF08043D3F8003403F084
:100730000103002B05D04FF080436FF00102C3F896
:100740000024FFF739FFFFF749FF00BF80BD00BF5E
:1007500000C000400649074A074B9B1A03DD043BD3
:10076000C858D050FBDCFFF747FFFFF791FD0000B2
:100770002C0A00000000002044040020FEE7FEE7F1
:10078000FEE7FEE7FEE7FEE7FEE7FEE7FEE7FEE741
:10079000002301461A46184600F09CB808B500210F
:1007A000044600F0CBF8044B1868C36B03B19847BC
:1007B000204600F025F900BF1C0A000038B5084BA0
:1007C000084D5B1B9C1007D0043B1D44013C55F8B1
:1007D00004399847002CF9D1BDE8384000F018B929
:1007E000440400204004002070B50D4E0D4D761BD2
:1007F000B61006D0002455F8043B01349847A642B1
:10080000F9D1094E094D761B00F0FCF8B61006D060
:10081000002455F8043B01349847A642F9D170BD35
:100820003804002038040020400400203804002050
:10083000830730B548D0541E002A3FD0CAB20346C1
:1008400001E0013C3AD303F8012B9D07F9D1032CB9
:100850002DD9CDB245EA05250F2C45EA054536D9F7
:10086000A4F1100222F00F0C03F1200EE6444FEA2F
:10087000121C03F1100242E9045542E902551032FC
:100880007245F8D10CF1010214F00C0F03EB0212C7
:1008900004F00F0C13D0ACF1040323F00303043372
:1008A000134442F8045B9342FBD10CF003042CB1D7
:1008B000CAB21C4403F8012B9C42FBD130BD6446F4
:1008C0001346002CF4D1F9E703461446BFE71A4655
:1008D000A446E0E770B4184C2568D5F848411CB32D
:1008E00065681F2D25DC38B9AB1C0135656044F8FF
:1008F0002310002070BC704704EB850C0228CCF854
:100900008820D4F888614FF0010202FA05F246EA25
:100910000206C4F88861CCF80831E5D1D4F88C31EE
:100920001343C4F88C31DFE705F5A674C5F84841D8
:10093000D6E74FF0FF30DDE71C0A00002DE9F04F4D
:10094000294B1F6883B0D7F848610190B6B18B4638
:100950004FF001084FF000097468651E0ED4013491
:1009600006EB8404BBF1000F0BD0D4F800315B45DB
:1009700007D0013D6B1CA4F10404F3D103B0BDE822
:10098000F08F73682268013BAB420CBF7560C4F8FE
:100990000090002AEDD0D6F88801D6F804A008FA15
:1009A00005F101420BD190477268524512D1D7F838
:1009B0004831B342DDD01E46002ECDD1DEE7D6F859
:1009C0008C0101420BD1D4F88010019890477268D5
:1009D0005245ECD0D7F84861002EBDD1CEE7D4F80F
:1009E00080009047E0E700BF1C0A0000024B13B1F3
:1009F0000248FFF7CDBE704700000000BD070000B1
:100A0000FEE700BFF8B500BFF8BC08BC9E467047C3
:100A1000F8B500BFF8BC08BC9E4670471000002027
:040A200000000000D2
:080A240064F8FF7F01000000EF
:100A2C000090D00300000000100000200000000027
:100A3C0000000000FC02002064030020CC03002016
:100A4C00000000000000000000000000000000009A
:100A5C00000000000000000000000000000000008A
:100A6C00000000000000000000000000000000007A
:100A7C00000000000000000000000000000000006A
:100A8C00000000000000000000000000000000005A
:100A9C00000000000000000000000000000000004A
:100AAC00000000000000000000000000000000003A
:100ABC00000000000000000000000000000000002A
:100ACC00000000000000000000000000000000001A
:100ADC000000000000000000010000000000000009
:100AEC000E33CDAB34126DE6ECDE05000B000000CE
:100AFC0000000000000000000000000000000000EA
:100B0C0000000000000000000000000000000000D9
:100B1C0000000000000000000000000000000000C9
:100B2C0000000000000000000000000000000000B9
:100E5C000000000000000000ED0900006902000025
:040E6C00410200003F
:04000003000007559D
:00000001FF
